{
  "_format": "hh-sol-artifact-1",
  "contractName": "Smeshariky",
  "sourceName": "contracts/Smeshariky.sol",
  "abi": [
    {
      "inputs": [],
      "stateMutability": "nonpayable",
      "type": "constructor"
    },
    {
      "anonymous": false,
      "inputs": [
        {
          "indexed": true,
          "internalType": "address",
          "name": "owner",
          "type": "address"
        },
        {
          "indexed": true,
          "internalType": "address",
          "name": "approved",
          "type": "address"
        },
        {
          "indexed": true,
          "internalType": "uint256",
          "name": "tokenId",
          "type": "uint256"
        }
      ],
      "name": "Approval",
      "type": "event"
    },
    {
      "anonymous": false,
      "inputs": [
        {
          "indexed": true,
          "internalType": "address",
          "name": "owner",
          "type": "address"
        },
        {
          "indexed": true,
          "internalType": "address",
          "name": "operator",
          "type": "address"
        },
        {
          "indexed": false,
          "internalType": "bool",
          "name": "approved",
          "type": "bool"
        }
      ],
      "name": "ApprovalForAll",
      "type": "event"
    },
    {
      "anonymous": false,
      "inputs": [
        {
          "indexed": true,
          "internalType": "address",
          "name": "previousOwner",
          "type": "address"
        },
        {
          "indexed": true,
          "internalType": "address",
          "name": "newOwner",
          "type": "address"
        }
      ],
      "name": "OwnershipTransferred",
      "type": "event"
    },
    {
      "anonymous": false,
      "inputs": [
        {
          "indexed": true,
          "internalType": "address",
          "name": "from",
          "type": "address"
        },
        {
          "indexed": true,
          "internalType": "address",
          "name": "to",
          "type": "address"
        },
        {
          "indexed": true,
          "internalType": "uint256",
          "name": "tokenId",
          "type": "uint256"
        }
      ],
      "name": "Transfer",
      "type": "event"
    },
    {
      "inputs": [
        {
          "internalType": "address",
          "name": "to",
          "type": "address"
        },
        {
          "internalType": "uint256",
          "name": "tokenId",
          "type": "uint256"
        }
      ],
      "name": "approve",
      "outputs": [],
      "stateMutability": "nonpayable",
      "type": "function"
    },
    {
      "inputs": [
        {
          "internalType": "address",
          "name": "owner",
          "type": "address"
        }
      ],
      "name": "balanceOf",
      "outputs": [
        {
          "internalType": "uint256",
          "name": "",
          "type": "uint256"
        }
      ],
      "stateMutability": "view",
      "type": "function"
    },
    {
      "inputs": [
        {
          "internalType": "uint256",
          "name": "tokenId",
          "type": "uint256"
        }
      ],
      "name": "getApproved",
      "outputs": [
        {
          "internalType": "address",
          "name": "",
          "type": "address"
        }
      ],
      "stateMutability": "view",
      "type": "function"
    },
    {
      "inputs": [
        {
          "internalType": "address",
          "name": "owner",
          "type": "address"
        },
        {
          "internalType": "address",
          "name": "operator",
          "type": "address"
        }
      ],
      "name": "isApprovedForAll",
      "outputs": [
        {
          "internalType": "bool",
          "name": "",
          "type": "bool"
        }
      ],
      "stateMutability": "view",
      "type": "function"
    },
    {
      "inputs": [
        {
          "internalType": "string",
          "name": "uri",
          "type": "string"
        }
      ],
      "name": "isContentOwned",
      "outputs": [
        {
          "internalType": "bool",
          "name": "",
          "type": "bool"
        }
      ],
      "stateMutability": "view",
      "type": "function"
    },
    {
      "inputs": [],
      "name": "name",
      "outputs": [
        {
          "internalType": "string",
          "name": "",
          "type": "string"
        }
      ],
      "stateMutability": "view",
      "type": "function"
    },
    {
      "inputs": [],
      "name": "owner",
      "outputs": [
        {
          "internalType": "address",
          "name": "",
          "type": "address"
        }
      ],
      "stateMutability": "view",
      "type": "function"
    },
    {
      "inputs": [
        {
          "internalType": "uint256",
          "name": "tokenId",
          "type": "uint256"
        }
      ],
      "name": "ownerOf",
      "outputs": [
        {
          "internalType": "address",
          "name": "",
          "type": "address"
        }
      ],
      "stateMutability": "view",
      "type": "function"
    },
    {
      "inputs": [
        {
          "internalType": "address",
          "name": "recipient",
          "type": "address"
        },
        {
          "internalType": "string",
          "name": "metadataURI",
          "type": "string"
        }
      ],
      "name": "payToMint",
      "outputs": [
        {
          "internalType": "uint256",
          "name": "",
          "type": "uint256"
        }
      ],
      "stateMutability": "payable",
      "type": "function"
    },
    {
      "inputs": [],
      "name": "renounceOwnership",
      "outputs": [],
      "stateMutability": "nonpayable",
      "type": "function"
    },
    {
      "inputs": [
        {
          "internalType": "address",
          "name": "to",
          "type": "address"
        },
        {
          "internalType": "string",
          "name": "uri",
          "type": "string"
        }
      ],
      "name": "safeMint",
      "outputs": [],
      "stateMutability": "nonpayable",
      "type": "function"
    },
    {
      "inputs": [
        {
          "internalType": "address",
          "name": "from",
          "type": "address"
        },
        {
          "internalType": "address",
          "name": "to",
          "type": "address"
        },
        {
          "internalType": "uint256",
          "name": "tokenId",
          "type": "uint256"
        }
      ],
      "name": "safeTransferFrom",
      "outputs": [],
      "stateMutability": "nonpayable",
      "type": "function"
    },
    {
      "inputs": [
        {
          "internalType": "address",
          "name": "from",
          "type": "address"
        },
        {
          "internalType": "address",
          "name": "to",
          "type": "address"
        },
        {
          "internalType": "uint256",
          "name": "tokenId",
          "type": "uint256"
        },
        {
          "internalType": "bytes",
          "name": "data",
          "type": "bytes"
        }
      ],
      "name": "safeTransferFrom",
      "outputs": [],
      "stateMutability": "nonpayable",
      "type": "function"
    },
    {
      "inputs": [
        {
          "internalType": "address",
          "name": "operator",
          "type": "address"
        },
        {
          "internalType": "bool",
          "name": "approved",
          "type": "bool"
        }
      ],
      "name": "setApprovalForAll",
      "outputs": [],
      "stateMutability": "nonpayable",
      "type": "function"
    },
    {
      "inputs": [
        {
          "internalType": "bytes4",
          "name": "interfaceId",
          "type": "bytes4"
        }
      ],
      "name": "supportsInterface",
      "outputs": [
        {
          "internalType": "bool",
          "name": "",
          "type": "bool"
        }
      ],
      "stateMutability": "view",
      "type": "function"
    },
    {
      "inputs": [],
      "name": "symbol",
      "outputs": [
        {
          "internalType": "string",
          "name": "",
          "type": "string"
        }
      ],
      "stateMutability": "view",
      "type": "function"
    },
    {
      "inputs": [
        {
          "internalType": "uint256",
          "name": "tokenId",
          "type": "uint256"
        }
      ],
      "name": "tokenURI",
      "outputs": [
        {
          "internalType": "string",
          "name": "",
          "type": "string"
        }
      ],
      "stateMutability": "view",
      "type": "function"
    },
    {
      "inputs": [
        {
          "internalType": "address",
          "name": "from",
          "type": "address"
        },
        {
          "internalType": "address",
          "name": "to",
          "type": "address"
        },
        {
          "internalType": "uint256",
          "name": "tokenId",
          "type": "uint256"
        }
      ],
      "name": "transferFrom",
      "outputs": [],
      "stateMutability": "nonpayable",
      "type": "function"
    },
    {
      "inputs": [
        {
          "internalType": "address",
          "name": "newOwner",
          "type": "address"
        }
      ],
      "name": "transferOwnership",
      "outputs": [],
      "stateMutability": "nonpayable",
      "type": "function"
    }
  ],
  "bytecode": "0x60806040523480156200001157600080fd5b506040518060400160405280600a81526020017f536d6573686172696b79000000000000000000000000000000000000000000008152506040518060400160405280600481526020017f534d45580000000000000000000000000000000000000000000000000000000081525081600090816200008f919062000412565b508060019081620000a1919062000412565b505050620000c4620000b8620000ca60201b60201c565b620000d260201b60201c565b620004f9565b600033905090565b6000600760009054906101000a900473ffffffffffffffffffffffffffffffffffffffff16905081600760006101000a81548173ffffffffffffffffffffffffffffffffffffffff021916908373ffffffffffffffffffffffffffffffffffffffff1602179055508173ffffffffffffffffffffffffffffffffffffffff168173ffffffffffffffffffffffffffffffffffffffff167f8be0079c531659141344cd1fd0a4f28419497f9722a3daafe3b4186f6b6457e060405160405180910390a35050565b600081519050919050565b7f4e487b7100000000000000000000000000000000000000000000000000000000600052604160045260246000fd5b7f4e487b7100000000000000000000000000000000000000000000000000000000600052602260045260246000fd5b600060028204905060018216806200021a57607f821691505b60208210810362000230576200022f620001d2565b5b50919050565b60008190508160005260206000209050919050565b60006020601f8301049050919050565b600082821b905092915050565b6000600883026200029a7fffffffffffffffffffffffffffffffffffffffffffffffffffffffffffffffff826200025b565b620002a686836200025b565b95508019841693508086168417925050509392505050565b6000819050919050565b6000819050919050565b6000620002f3620002ed620002e784620002be565b620002c8565b620002be565b9050919050565b6000819050919050565b6200030f83620002d2565b620003276200031e82620002fa565b84845462000268565b825550505050565b600090565b6200033e6200032f565b6200034b81848462000304565b505050565b5b8181101562000373576200036760008262000334565b60018101905062000351565b5050565b601f821115620003c2576200038c8162000236565b62000397846200024b565b81016020851015620003a7578190505b620003bf620003b6856200024b565b83018262000350565b50505b505050565b600082821c905092915050565b6000620003e760001984600802620003c7565b1980831691505092915050565b6000620004028383620003d4565b9150826002028217905092915050565b6200041d8262000198565b67ffffffffffffffff811115620004395762000438620001a3565b5b62000445825462000201565b6200045282828562000377565b600060209050601f8311600181146200048a576000841562000475578287015190505b620004818582620003f4565b865550620004f1565b601f1984166200049a8662000236565b60005b82811015620004c4578489015182556001820191506020850194506020810190506200049d565b86831015620004e45784890151620004e0601f891682620003d4565b8355505b6001600288020188555050505b505050505050565b6133f680620005096000396000f3fe6080604052600436106101145760003560e01c8063715018a6116100a0578063b88d4fde11610064578063b88d4fde146103b6578063c87b56dd146103df578063d204c45e1461041c578063e985e9c514610445578063f2fde38b1461048257610114565b8063715018a6146102e35780638da5cb5b146102fa57806395d89b41146103255780639f1cabc614610350578063a22cb4651461038d57610114565b806323b872dd116100e757806323b872dd146101e757806342842e0e14610210578063615fd9e2146102395780636352211e1461026957806370a08231146102a657610114565b806301ffc9a71461011957806306fdde0314610156578063081812fc14610181578063095ea7b3146101be575b600080fd5b34801561012557600080fd5b50610140600480360381019061013b9190612018565b6104ab565b60405161014d9190612060565b60405180910390f35b34801561016257600080fd5b5061016b61058d565b604051610178919061210b565b60405180910390f35b34801561018d57600080fd5b506101a860048036038101906101a39190612163565b61061f565b6040516101b591906121d1565b60405180910390f35b3480156101ca57600080fd5b506101e560048036038101906101e09190612218565b610665565b005b3480156101f357600080fd5b5061020e60048036038101906102099190612258565b61077c565b005b34801561021c57600080fd5b5061023760048036038101906102329190612258565b6107dc565b005b610253600480360381019061024e91906123e0565b6107fc565b604051610260919061244b565b60405180910390f35b34801561027557600080fd5b50610290600480360381019061028b9190612163565b610927565b60405161029d91906121d1565b60405180910390f35b3480156102b257600080fd5b506102cd60048036038101906102c89190612466565b6109ad565b6040516102da919061244b565b60405180910390f35b3480156102ef57600080fd5b506102f8610a64565b005b34801561030657600080fd5b5061030f610a78565b60405161031c91906121d1565b60405180910390f35b34801561033157600080fd5b5061033a610aa2565b604051610347919061210b565b60405180910390f35b34801561035c57600080fd5b5061037760048036038101906103729190612493565b610b34565b6040516103849190612060565b60405180910390f35b34801561039957600080fd5b506103b460048036038101906103af9190612508565b610b6f565b005b3480156103c257600080fd5b506103dd60048036038101906103d891906125e9565b610b85565b005b3480156103eb57600080fd5b5061040660048036038101906104019190612163565b610be7565b604051610413919061210b565b60405180910390f35b34801561042857600080fd5b50610443600480360381019061043e91906123e0565b610bf9565b005b34801561045157600080fd5b5061046c6004803603810190610467919061266c565b610c32565b6040516104799190612060565b60405180910390f35b34801561048e57600080fd5b506104a960048036038101906104a49190612466565b610cc6565b005b60007f80ac58cd000000000000000000000000000000000000000000000000000000007bffffffffffffffffffffffffffffffffffffffffffffffffffffffff1916827bffffffffffffffffffffffffffffffffffffffffffffffffffffffff1916148061057657507f5b5e139f000000000000000000000000000000000000000000000000000000007bffffffffffffffffffffffffffffffffffffffffffffffffffffffff1916827bffffffffffffffffffffffffffffffffffffffffffffffffffffffff1916145b80610586575061058582610d49565b5b9050919050565b60606000805461059c906126db565b80601f01602080910402602001604051908101604052809291908181526020018280546105c8906126db565b80156106155780601f106105ea57610100808354040283529160200191610615565b820191906000526020600020905b8154815290600101906020018083116105f857829003601f168201915b5050505050905090565b600061062a82610db3565b6004600083815260200190815260200160002060009054906101000a900473ffffffffffffffffffffffffffffffffffffffff169050919050565b600061067082610927565b90508073ffffffffffffffffffffffffffffffffffffffff168373ffffffffffffffffffffffffffffffffffffffff16036106e0576040517f08c379a00000000000000000000000000000000000000000000000000000000081526004016106d79061277e565b60405180910390fd5b8073ffffffffffffffffffffffffffffffffffffffff166106ff610dfe565b73ffffffffffffffffffffffffffffffffffffffff16148061072e575061072d81610728610dfe565b610c32565b5b61076d576040517f08c379a000000000000000000000000000000000000000000000000000000000815260040161076490612810565b60405180910390fd5b6107778383610e06565b505050565b61078d610787610dfe565b82610ebf565b6107cc576040517f08c379a00000000000000000000000000000000000000000000000000000000081526004016107c3906128a2565b60405180910390fd5b6107d7838383610f54565b505050565b6107f783838360405180602001604052806000815250610b85565b505050565b6000600160098360405161081091906128fe565b908152602001604051809103902060009054906101000a900460ff1660ff160361086f576040517f08c379a000000000000000000000000000000000000000000000000000000000815260040161086690612961565b60405180910390fd5b662386f26fc100003410156108b9576040517f08c379a00000000000000000000000000000000000000000000000000000000081526004016108b0906129cd565b60405180910390fd5b60006108c5600861124d565b90506108d1600861125b565b60016009846040516108e391906128fe565b908152602001604051809103902060006101000a81548160ff021916908360ff1602179055506109138482611271565b61091d818461148e565b8091505092915050565b600080610933836114fb565b9050600073ffffffffffffffffffffffffffffffffffffffff168173ffffffffffffffffffffffffffffffffffffffff16036109a4576040517f08c379a000000000000000000000000000000000000000000000000000000000815260040161099b90612a39565b60405180910390fd5b80915050919050565b60008073ffffffffffffffffffffffffffffffffffffffff168273ffffffffffffffffffffffffffffffffffffffff1603610a1d576040517f08c379a0000000000000000000000000000000000000000000000000000000008152600401610a1490612acb565b60405180910390fd5b600360008373ffffffffffffffffffffffffffffffffffffffff1673ffffffffffffffffffffffffffffffffffffffff168152602001908152602001600020549050919050565b610a6c611538565b610a7660006115b6565b565b6000600760009054906101000a900473ffffffffffffffffffffffffffffffffffffffff16905090565b606060018054610ab1906126db565b80601f0160208091040260200160405190810160405280929190818152602001828054610add906126db565b8015610b2a5780601f10610aff57610100808354040283529160200191610b2a565b820191906000526020600020905b815481529060010190602001808311610b0d57829003601f168201915b5050505050905090565b60006001600983604051610b4891906128fe565b908152602001604051809103902060009054906101000a900460ff1660ff16149050919050565b610b81610b7a610dfe565b838361167c565b5050565b610b96610b90610dfe565b83610ebf565b610bd5576040517f08c379a0000000000000000000000000000000000000000000000000000000008152600401610bcc906128a2565b60405180910390fd5b610be1848484846117e8565b50505050565b6060610bf282611844565b9050919050565b610c01611538565b6000610c0d600861124d565b9050610c19600861125b565b610c238382611956565b610c2d818361148e565b505050565b6000600560008473ffffffffffffffffffffffffffffffffffffffff1673ffffffffffffffffffffffffffffffffffffffff16815260200190815260200160002060008373ffffffffffffffffffffffffffffffffffffffff1673ffffffffffffffffffffffffffffffffffffffff16815260200190815260200160002060009054906101000a900460ff16905092915050565b610cce611538565b600073ffffffffffffffffffffffffffffffffffffffff168173ffffffffffffffffffffffffffffffffffffffff1603610d3d576040517f08c379a0000000000000000000000000000000000000000000000000000000008152600401610d3490612b5d565b60405180910390fd5b610d46816115b6565b50565b60007f01ffc9a7000000000000000000000000000000000000000000000000000000007bffffffffffffffffffffffffffffffffffffffffffffffffffffffff1916827bffffffffffffffffffffffffffffffffffffffffffffffffffffffff1916149050919050565b610dbc81611974565b610dfb576040517f08c379a0000000000000000000000000000000000000000000000000000000008152600401610df290612a39565b60405180910390fd5b50565b600033905090565b816004600083815260200190815260200160002060006101000a81548173ffffffffffffffffffffffffffffffffffffffff021916908373ffffffffffffffffffffffffffffffffffffffff160217905550808273ffffffffffffffffffffffffffffffffffffffff16610e7983610927565b73ffffffffffffffffffffffffffffffffffffffff167f8c5be1e5ebec7d5bd14f71427d1e84f3dd0314c0f7b2291e5b200ac8c7c3b92560405160405180910390a45050565b600080610ecb83610927565b90508073ffffffffffffffffffffffffffffffffffffffff168473ffffffffffffffffffffffffffffffffffffffff161480610f0d5750610f0c8185610c32565b5b80610f4b57508373ffffffffffffffffffffffffffffffffffffffff16610f338461061f565b73ffffffffffffffffffffffffffffffffffffffff16145b91505092915050565b8273ffffffffffffffffffffffffffffffffffffffff16610f7482610927565b73ffffffffffffffffffffffffffffffffffffffff1614610fca576040517f08c379a0000000000000000000000000000000000000000000000000000000008152600401610fc190612bef565b60405180910390fd5b600073ffffffffffffffffffffffffffffffffffffffff168273ffffffffffffffffffffffffffffffffffffffff1603611039576040517f08c379a000000000000000000000000000000000000000000000000000000000815260040161103090612c81565b60405180910390fd5b61104683838360016119b5565b8273ffffffffffffffffffffffffffffffffffffffff1661106682610927565b73ffffffffffffffffffffffffffffffffffffffff16146110bc576040517f08c379a00000000000000000000000000000000000000000000000000000000081526004016110b390612bef565b60405180910390fd5b6004600082815260200190815260200160002060006101000a81549073ffffffffffffffffffffffffffffffffffffffff02191690556001600360008573ffffffffffffffffffffffffffffffffffffffff1673ffffffffffffffffffffffffffffffffffffffff168152602001908152602001600020600082825403925050819055506001600360008473ffffffffffffffffffffffffffffffffffffffff1673ffffffffffffffffffffffffffffffffffffffff16815260200190815260200160002060008282540192505081905550816002600083815260200190815260200160002060006101000a81548173ffffffffffffffffffffffffffffffffffffffff021916908373ffffffffffffffffffffffffffffffffffffffff160217905550808273ffffffffffffffffffffffffffffffffffffffff168473ffffffffffffffffffffffffffffffffffffffff167fddf252ad1be2c89b69c2b068fc378daa952ba7f163c4a11628f55a4df523b3ef60405160405180910390a46112488383836001611adb565b505050565b600081600001549050919050565b6001816000016000828254019250508190555050565b600073ffffffffffffffffffffffffffffffffffffffff168273ffffffffffffffffffffffffffffffffffffffff16036112e0576040517f08c379a00000000000000000000000000000000000000000000000000000000081526004016112d790612ced565b60405180910390fd5b6112e981611974565b15611329576040517f08c379a000000000000000000000000000000000000000000000000000000000815260040161132090612d59565b60405180910390fd5b6113376000838360016119b5565b61134081611974565b15611380576040517f08c379a000000000000000000000000000000000000000000000000000000000815260040161137790612d59565b60405180910390fd5b6001600360008473ffffffffffffffffffffffffffffffffffffffff1673ffffffffffffffffffffffffffffffffffffffff16815260200190815260200160002060008282540192505081905550816002600083815260200190815260200160002060006101000a81548173ffffffffffffffffffffffffffffffffffffffff021916908373ffffffffffffffffffffffffffffffffffffffff160217905550808273ffffffffffffffffffffffffffffffffffffffff16600073ffffffffffffffffffffffffffffffffffffffff167fddf252ad1be2c89b69c2b068fc378daa952ba7f163c4a11628f55a4df523b3ef60405160405180910390a461148a600083836001611adb565b5050565b61149782611974565b6114d6576040517f08c379a00000000000000000000000000000000000000000000000000000000081526004016114cd90612deb565b60405180910390fd5b806006600084815260200190815260200160002090816114f69190612fb7565b505050565b60006002600083815260200190815260200160002060009054906101000a900473ffffffffffffffffffffffffffffffffffffffff169050919050565b611540610dfe565b73ffffffffffffffffffffffffffffffffffffffff1661155e610a78565b73ffffffffffffffffffffffffffffffffffffffff16146115b4576040517f08c379a00000000000000000000000000000000000000000000000000000000081526004016115ab906130d5565b60405180910390fd5b565b6000600760009054906101000a900473ffffffffffffffffffffffffffffffffffffffff16905081600760006101000a81548173ffffffffffffffffffffffffffffffffffffffff021916908373ffffffffffffffffffffffffffffffffffffffff1602179055508173ffffffffffffffffffffffffffffffffffffffff168173ffffffffffffffffffffffffffffffffffffffff167f8be0079c531659141344cd1fd0a4f28419497f9722a3daafe3b4186f6b6457e060405160405180910390a35050565b8173ffffffffffffffffffffffffffffffffffffffff168373ffffffffffffffffffffffffffffffffffffffff16036116ea576040517f08c379a00000000000000000000000000000000000000000000000000000000081526004016116e190613141565b60405180910390fd5b80600560008573ffffffffffffffffffffffffffffffffffffffff1673ffffffffffffffffffffffffffffffffffffffff16815260200190815260200160002060008473ffffffffffffffffffffffffffffffffffffffff1673ffffffffffffffffffffffffffffffffffffffff16815260200190815260200160002060006101000a81548160ff0219169083151502179055508173ffffffffffffffffffffffffffffffffffffffff168373ffffffffffffffffffffffffffffffffffffffff167f17307eab39ab6107e8899845ad3d59bd9653f200f220920489ca2b5937696c31836040516117db9190612060565b60405180910390a3505050565b6117f3848484610f54565b6117ff84848484611ae1565b61183e576040517f08c379a0000000000000000000000000000000000000000000000000000000008152600401611835906131d3565b60405180910390fd5b50505050565b606061184f82610db3565b600060066000848152602001908152602001600020805461186f906126db565b80601f016020809104026020016040519081016040528092919081815260200182805461189b906126db565b80156118e85780601f106118bd576101008083540402835291602001916118e8565b820191906000526020600020905b8154815290600101906020018083116118cb57829003601f168201915b5050505050905060006118f9611c68565b9050600081510361190e578192505050611951565b60008251111561194357808260405160200161192b9291906131f3565b60405160208183030381529060405292505050611951565b61194c84611ca5565b925050505b919050565b611970828260405180602001604052806000815250611d0d565b5050565b60008073ffffffffffffffffffffffffffffffffffffffff16611996836114fb565b73ffffffffffffffffffffffffffffffffffffffff1614159050919050565b6001811115611ad557600073ffffffffffffffffffffffffffffffffffffffff168473ffffffffffffffffffffffffffffffffffffffff1614611a495780600360008673ffffffffffffffffffffffffffffffffffffffff1673ffffffffffffffffffffffffffffffffffffffff1681526020019081526020016000206000828254611a419190613246565b925050819055505b600073ffffffffffffffffffffffffffffffffffffffff168373ffffffffffffffffffffffffffffffffffffffff1614611ad45780600360008573ffffffffffffffffffffffffffffffffffffffff1673ffffffffffffffffffffffffffffffffffffffff1681526020019081526020016000206000828254611acc919061327a565b925050819055505b5b50505050565b50505050565b6000611b028473ffffffffffffffffffffffffffffffffffffffff16611d68565b15611c5b578373ffffffffffffffffffffffffffffffffffffffff1663150b7a02611b2b610dfe565b8786866040518563ffffffff1660e01b8152600401611b4d9493929190613303565b6020604051808303816000875af1925050508015611b8957506040513d601f19601f82011682018060405250810190611b869190613364565b60015b611c0b573d8060008114611bb9576040519150601f19603f3d011682016040523d82523d6000602084013e611bbe565b606091505b506000815103611c03576040517f08c379a0000000000000000000000000000000000000000000000000000000008152600401611bfa906131d3565b60405180910390fd5b805181602001fd5b63150b7a0260e01b7bffffffffffffffffffffffffffffffffffffffffffffffffffffffff1916817bffffffffffffffffffffffffffffffffffffffffffffffffffffffff191614915050611c60565b600190505b949350505050565b60606040518060400160405280600781526020017f697066733a2f2f00000000000000000000000000000000000000000000000000815250905090565b6060611cb082610db3565b6000611cba611c68565b90506000815111611cda5760405180602001604052806000815250611d05565b80611ce484611d8b565b604051602001611cf59291906131f3565b6040516020818303038152906040525b915050919050565b611d178383611271565b611d246000848484611ae1565b611d63576040517f08c379a0000000000000000000000000000000000000000000000000000000008152600401611d5a906131d3565b60405180910390fd5b505050565b6000808273ffffffffffffffffffffffffffffffffffffffff163b119050919050565b606060006001611d9a84611e59565b01905060008167ffffffffffffffff811115611db957611db86122b5565b5b6040519080825280601f01601f191660200182016040528015611deb5781602001600182028036833780820191505090505b509050600082602001820190505b600115611e4e578080600190039150507f3031323334353637383961626364656600000000000000000000000000000000600a86061a8153600a8581611e4257611e41613391565b5b04945060008503611df9575b819350505050919050565b600080600090507a184f03e93ff9f4daa797ed6e38ed64bf6a1f0100000000000000008310611eb7577a184f03e93ff9f4daa797ed6e38ed64bf6a1f0100000000000000008381611ead57611eac613391565b5b0492506040810190505b6d04ee2d6d415b85acef81000000008310611ef4576d04ee2d6d415b85acef81000000008381611eea57611ee9613391565b5b0492506020810190505b662386f26fc100008310611f2357662386f26fc100008381611f1957611f18613391565b5b0492506010810190505b6305f5e1008310611f4c576305f5e1008381611f4257611f41613391565b5b0492506008810190505b6127108310611f71576127108381611f6757611f66613391565b5b0492506004810190505b60648310611f945760648381611f8a57611f89613391565b5b0492506002810190505b600a8310611fa3576001810190505b80915050919050565b6000604051905090565b600080fd5b600080fd5b60007fffffffff0000000000000000000000000000000000000000000000000000000082169050919050565b611ff581611fc0565b811461200057600080fd5b50565b60008135905061201281611fec565b92915050565b60006020828403121561202e5761202d611fb6565b5b600061203c84828501612003565b91505092915050565b60008115159050919050565b61205a81612045565b82525050565b60006020820190506120756000830184612051565b92915050565b600081519050919050565b600082825260208201905092915050565b60005b838110156120b557808201518184015260208101905061209a565b60008484015250505050565b6000601f19601f8301169050919050565b60006120dd8261207b565b6120e78185612086565b93506120f7818560208601612097565b612100816120c1565b840191505092915050565b6000602082019050818103600083015261212581846120d2565b905092915050565b6000819050919050565b6121408161212d565b811461214b57600080fd5b50565b60008135905061215d81612137565b92915050565b60006020828403121561217957612178611fb6565b5b60006121878482850161214e565b91505092915050565b600073ffffffffffffffffffffffffffffffffffffffff82169050919050565b60006121bb82612190565b9050919050565b6121cb816121b0565b82525050565b60006020820190506121e660008301846121c2565b92915050565b6121f5816121b0565b811461220057600080fd5b50565b600081359050612212816121ec565b92915050565b6000806040838503121561222f5761222e611fb6565b5b600061223d85828601612203565b925050602061224e8582860161214e565b9150509250929050565b60008060006060848603121561227157612270611fb6565b5b600061227f86828701612203565b935050602061229086828701612203565b92505060406122a18682870161214e565b9150509250925092565b600080fd5b600080fd5b7f4e487b7100000000000000000000000000000000000000000000000000000000600052604160045260246000fd5b6122ed826120c1565b810181811067ffffffffffffffff8211171561230c5761230b6122b5565b5b80604052505050565b600061231f611fac565b905061232b82826122e4565b919050565b600067ffffffffffffffff82111561234b5761234a6122b5565b5b612354826120c1565b9050602081019050919050565b82818337600083830152505050565b600061238361237e84612330565b612315565b90508281526020810184848401111561239f5761239e6122b0565b5b6123aa848285612361565b509392505050565b600082601f8301126123c7576123c66122ab565b5b81356123d7848260208601612370565b91505092915050565b600080604083850312156123f7576123f6611fb6565b5b600061240585828601612203565b925050602083013567ffffffffffffffff81111561242657612425611fbb565b5b612432858286016123b2565b9150509250929050565b6124458161212d565b82525050565b6000602082019050612460600083018461243c565b92915050565b60006020828403121561247c5761247b611fb6565b5b600061248a84828501612203565b91505092915050565b6000602082840312156124a9576124a8611fb6565b5b600082013567ffffffffffffffff8111156124c7576124c6611fbb565b5b6124d3848285016123b2565b91505092915050565b6124e581612045565b81146124f057600080fd5b50565b600081359050612502816124dc565b92915050565b6000806040838503121561251f5761251e611fb6565b5b600061252d85828601612203565b925050602061253e858286016124f3565b9150509250929050565b600067ffffffffffffffff821115612563576125626122b5565b5b61256c826120c1565b9050602081019050919050565b600061258c61258784612548565b612315565b9050828152602081018484840111156125a8576125a76122b0565b5b6125b3848285612361565b509392505050565b600082601f8301126125d0576125cf6122ab565b5b81356125e0848260208601612579565b91505092915050565b6000806000806080858703121561260357612602611fb6565b5b600061261187828801612203565b945050602061262287828801612203565b93505060406126338782880161214e565b925050606085013567ffffffffffffffff81111561265457612653611fbb565b5b612660878288016125bb565b91505092959194509250565b6000806040838503121561268357612682611fb6565b5b600061269185828601612203565b92505060206126a285828601612203565b9150509250929050565b7f4e487b7100000000000000000000000000000000000000000000000000000000600052602260045260246000fd5b600060028204905060018216806126f357607f821691505b602082108103612706576127056126ac565b5b50919050565b7f4552433732313a20617070726f76616c20746f2063757272656e74206f776e6560008201527f7200000000000000000000000000000000000000000000000000000000000000602082015250565b6000612768602183612086565b91506127738261270c565b604082019050919050565b600060208201905081810360008301526127978161275b565b9050919050565b7f4552433732313a20617070726f76652063616c6c6572206973206e6f7420746f60008201527f6b656e206f776e6572206f7220617070726f76656420666f7220616c6c000000602082015250565b60006127fa603d83612086565b91506128058261279e565b604082019050919050565b60006020820190508181036000830152612829816127ed565b9050919050565b7f4552433732313a2063616c6c6572206973206e6f7420746f6b656e206f776e6560008201527f72206f7220617070726f76656400000000000000000000000000000000000000602082015250565b600061288c602d83612086565b915061289782612830565b604082019050919050565b600060208201905081810360008301526128bb8161287f565b9050919050565b600081905092915050565b60006128d88261207b565b6128e281856128c2565b93506128f2818560208601612097565b80840191505092915050565b600061290a82846128cd565b915081905092915050565b7f4e465420616c7265616479206d696e7465642100000000000000000000000000600082015250565b600061294b601383612086565b915061295682612915565b602082019050919050565b6000602082019050818103600083015261297a8161293e565b9050919050565b7f4e65656420746f20706179207570210000000000000000000000000000000000600082015250565b60006129b7600f83612086565b91506129c282612981565b602082019050919050565b600060208201905081810360008301526129e6816129aa565b9050919050565b7f4552433732313a20696e76616c696420746f6b656e2049440000000000000000600082015250565b6000612a23601883612086565b9150612a2e826129ed565b602082019050919050565b60006020820190508181036000830152612a5281612a16565b9050919050565b7f4552433732313a2061646472657373207a65726f206973206e6f74206120766160008201527f6c6964206f776e65720000000000000000000000000000000000000000000000602082015250565b6000612ab5602983612086565b9150612ac082612a59565b604082019050919050565b60006020820190508181036000830152612ae481612aa8565b9050919050565b7f4f776e61626c653a206e6577206f776e657220697320746865207a65726f206160008201527f6464726573730000000000000000000000000000000000000000000000000000602082015250565b6000612b47602683612086565b9150612b5282612aeb565b604082019050919050565b60006020820190508181036000830152612b7681612b3a565b9050919050565b7f4552433732313a207472616e736665722066726f6d20696e636f72726563742060008201527f6f776e6572000000000000000000000000000000000000000000000000000000602082015250565b6000612bd9602583612086565b9150612be482612b7d565b604082019050919050565b60006020820190508181036000830152612c0881612bcc565b9050919050565b7f4552433732313a207472616e7366657220746f20746865207a65726f2061646460008201527f7265737300000000000000000000000000000000000000000000000000000000602082015250565b6000612c6b602483612086565b9150612c7682612c0f565b604082019050919050565b60006020820190508181036000830152612c9a81612c5e565b9050919050565b7f4552433732313a206d696e7420746f20746865207a65726f2061646472657373600082015250565b6000612cd7602083612086565b9150612ce282612ca1565b602082019050919050565b60006020820190508181036000830152612d0681612cca565b9050919050565b7f4552433732313a20746f6b656e20616c7265616479206d696e74656400000000600082015250565b6000612d43601c83612086565b9150612d4e82612d0d565b602082019050919050565b60006020820190508181036000830152612d7281612d36565b9050919050565b7f45524337323155524953746f726167653a2055524920736574206f66206e6f6e60008201527f6578697374656e7420746f6b656e000000000000000000000000000000000000602082015250565b6000612dd5602e83612086565b9150612de082612d79565b604082019050919050565b60006020820190508181036000830152612e0481612dc8565b9050919050565b60008190508160005260206000209050919050565b60006020601f8301049050919050565b600082821b905092915050565b600060088302612e6d7fffffffffffffffffffffffffffffffffffffffffffffffffffffffffffffffff82612e30565b612e778683612e30565b95508019841693508086168417925050509392505050565b6000819050919050565b6000612eb4612eaf612eaa8461212d565b612e8f565b61212d565b9050919050565b6000819050919050565b612ece83612e99565b612ee2612eda82612ebb565b848454612e3d565b825550505050565b600090565b612ef7612eea565b612f02818484612ec5565b505050565b5b81811015612f2657612f1b600082612eef565b600181019050612f08565b5050565b601f821115612f6b57612f3c81612e0b565b612f4584612e20565b81016020851015612f54578190505b612f68612f6085612e20565b830182612f07565b50505b505050565b600082821c905092915050565b6000612f8e60001984600802612f70565b1980831691505092915050565b6000612fa78383612f7d565b9150826002028217905092915050565b612fc08261207b565b67ffffffffffffffff811115612fd957612fd86122b5565b5b612fe382546126db565b612fee828285612f2a565b600060209050601f831160018114613021576000841561300f578287015190505b6130198582612f9b565b865550613081565b601f19841661302f86612e0b565b60005b8281101561305757848901518255600182019150602085019450602081019050613032565b868310156130745784890151613070601f891682612f7d565b8355505b6001600288020188555050505b505050505050565b7f4f776e61626c653a2063616c6c6572206973206e6f7420746865206f776e6572600082015250565b60006130bf602083612086565b91506130ca82613089565b602082019050919050565b600060208201905081810360008301526130ee816130b2565b9050919050565b7f4552433732313a20617070726f766520746f2063616c6c657200000000000000600082015250565b600061312b601983612086565b9150613136826130f5565b602082019050919050565b6000602082019050818103600083015261315a8161311e565b9050919050565b7f4552433732313a207472616e7366657220746f206e6f6e20455243373231526560008201527f63656976657220696d706c656d656e7465720000000000000000000000000000602082015250565b60006131bd603283612086565b91506131c882613161565b604082019050919050565b600060208201905081810360008301526131ec816131b0565b9050919050565b60006131ff82856128cd565b915061320b82846128cd565b91508190509392505050565b7f4e487b7100000000000000000000000000000000000000000000000000000000600052601160045260246000fd5b60006132518261212d565b915061325c8361212d565b925082820390508181111561327457613273613217565b5b92915050565b60006132858261212d565b91506132908361212d565b92508282019050808211156132a8576132a7613217565b5b92915050565b600081519050919050565b600082825260208201905092915050565b60006132d5826132ae565b6132df81856132b9565b93506132ef818560208601612097565b6132f8816120c1565b840191505092915050565b600060808201905061331860008301876121c2565b61332560208301866121c2565b613332604083018561243c565b818103606083015261334481846132ca565b905095945050505050565b60008151905061335e81611fec565b92915050565b60006020828403121561337a57613379611fb6565b5b60006133888482850161334f565b91505092915050565b7f4e487b7100000000000000000000000000000000000000000000000000000000600052601260045260246000fdfea26469706673582212205057b6f6ab3f825c7017d248c3a399215b1ce1bb12130320df75b5422e7fef8a64736f6c63430008110033",
  "linkReferences": {},
  "deployedLinkReferences": {}
}